{
  "contractName": "Eureka",
  "abi": [
    {
      "inputs": [],
      "payable": false,
      "stateMutability": "nonpayable",
      "type": "constructor"
    },
    {
      "anonymous": false,
      "inputs": [
        {
          "indexed": true,
          "internalType": "address",
          "name": "owner",
          "type": "address"
        },
        {
          "indexed": true,
          "internalType": "address",
          "name": "spender",
          "type": "address"
        },
        {
          "indexed": false,
          "internalType": "uint256",
          "name": "value",
          "type": "uint256"
        }
      ],
      "name": "Approval",
      "type": "event"
    },
    {
      "anonymous": false,
      "inputs": [
        {
          "indexed": true,
          "internalType": "address",
          "name": "from",
          "type": "address"
        },
        {
          "indexed": true,
          "internalType": "address",
          "name": "to",
          "type": "address"
        },
        {
          "indexed": false,
          "internalType": "uint256",
          "name": "value",
          "type": "uint256"
        }
      ],
      "name": "Transfer",
      "type": "event"
    },
    {
      "constant": true,
      "inputs": [],
      "name": "EditorAmt",
      "outputs": [
        {
          "internalType": "uint256",
          "name": "",
          "type": "uint256"
        }
      ],
      "payable": false,
      "stateMutability": "view",
      "type": "function"
    },
    {
      "constant": true,
      "inputs": [],
      "name": "ReferencedAmt",
      "outputs": [
        {
          "internalType": "uint256",
          "name": "",
          "type": "uint256"
        }
      ],
      "payable": false,
      "stateMutability": "view",
      "type": "function"
    },
    {
      "constant": true,
      "inputs": [],
      "name": "ReviewerAmt",
      "outputs": [
        {
          "internalType": "uint256",
          "name": "",
          "type": "uint256"
        }
      ],
      "payable": false,
      "stateMutability": "view",
      "type": "function"
    },
    {
      "constant": true,
      "inputs": [
        {
          "internalType": "uint256",
          "name": "",
          "type": "uint256"
        }
      ],
      "name": "authorAccts",
      "outputs": [
        {
          "internalType": "address",
          "name": "",
          "type": "address"
        }
      ],
      "payable": false,
      "stateMutability": "view",
      "type": "function"
    },
    {
      "constant": true,
      "inputs": [
        {
          "internalType": "address",
          "name": "",
          "type": "address"
        }
      ],
      "name": "authors",
      "outputs": [
        {
          "internalType": "uint256",
          "name": "authid",
          "type": "uint256"
        },
        {
          "internalType": "string",
          "name": "authname",
          "type": "string"
        }
      ],
      "payable": false,
      "stateMutability": "view",
      "type": "function"
    },
    {
      "constant": true,
      "inputs": [],
      "name": "authorsCount",
      "outputs": [
        {
          "internalType": "uint256",
          "name": "",
          "type": "uint256"
        }
      ],
      "payable": false,
      "stateMutability": "view",
      "type": "function"
    },
    {
      "constant": true,
      "inputs": [
        {
          "internalType": "uint256",
          "name": "",
          "type": "uint256"
        }
      ],
      "name": "editorAccts",
      "outputs": [
        {
          "internalType": "address",
          "name": "",
          "type": "address"
        }
      ],
      "payable": false,
      "stateMutability": "view",
      "type": "function"
    },
    {
      "constant": true,
      "inputs": [
        {
          "internalType": "address",
          "name": "",
          "type": "address"
        }
      ],
      "name": "editors",
      "outputs": [
        {
          "internalType": "uint256",
          "name": "editid",
          "type": "uint256"
        },
        {
          "internalType": "string",
          "name": "editname",
          "type": "string"
        }
      ],
      "payable": false,
      "stateMutability": "view",
      "type": "function"
    },
    {
      "constant": true,
      "inputs": [],
      "name": "editorsCount",
      "outputs": [
        {
          "internalType": "uint256",
          "name": "",
          "type": "uint256"
        }
      ],
      "payable": false,
      "stateMutability": "view",
      "type": "function"
    },
    {
      "constant": true,
      "inputs": [],
      "name": "id",
      "outputs": [
        {
          "internalType": "uint256",
          "name": "",
          "type": "uint256"
        }
      ],
      "payable": false,
      "stateMutability": "view",
      "type": "function"
    },
    {
      "constant": true,
      "inputs": [],
      "name": "minPaperAmount",
      "outputs": [
        {
          "internalType": "uint256",
          "name": "",
          "type": "uint256"
        }
      ],
      "payable": false,
      "stateMutability": "view",
      "type": "function"
    },
    {
      "constant": true,
      "inputs": [],
      "name": "minreview",
      "outputs": [
        {
          "internalType": "uint256",
          "name": "",
          "type": "uint256"
        }
      ],
      "payable": false,
      "stateMutability": "view",
      "type": "function"
    },
    {
      "constant": true,
      "inputs": [
        {
          "internalType": "uint256",
          "name": "",
          "type": "uint256"
        }
      ],
      "name": "papers",
      "outputs": [
        {
          "internalType": "uint256",
          "name": "paperid",
          "type": "uint256"
        },
        {
          "internalType": "uint256",
          "name": "authid",
          "type": "uint256"
        },
        {
          "internalType": "string",
          "name": "url",
          "type": "string"
        },
        {
          "internalType": "uint256",
          "name": "reviewCount",
          "type": "uint256"
        },
        {
          "internalType": "uint256",
          "name": "noreferencedauthors",
          "type": "uint256"
        }
      ],
      "payable": false,
      "stateMutability": "view",
      "type": "function"
    },
    {
      "constant": true,
      "inputs": [],
      "name": "papersCount",
      "outputs": [
        {
          "internalType": "uint256",
          "name": "",
          "type": "uint256"
        }
      ],
      "payable": false,
      "stateMutability": "view",
      "type": "function"
    },
    {
      "constant": true,
      "inputs": [
        {
          "internalType": "uint256",
          "name": "",
          "type": "uint256"
        }
      ],
      "name": "referencedAuthors",
      "outputs": [
        {
          "internalType": "address",
          "name": "",
          "type": "address"
        }
      ],
      "payable": false,
      "stateMutability": "view",
      "type": "function"
    },
    {
      "constant": true,
      "inputs": [
        {
          "internalType": "uint256",
          "name": "",
          "type": "uint256"
        }
      ],
      "name": "reviewerAccts",
      "outputs": [
        {
          "internalType": "address",
          "name": "",
          "type": "address"
        }
      ],
      "payable": false,
      "stateMutability": "view",
      "type": "function"
    },
    {
      "constant": true,
      "inputs": [
        {
          "internalType": "address",
          "name": "",
          "type": "address"
        }
      ],
      "name": "reviewers",
      "outputs": [
        {
          "internalType": "uint256",
          "name": "reviewerid",
          "type": "uint256"
        },
        {
          "internalType": "string",
          "name": "reviewername",
          "type": "string"
        },
        {
          "internalType": "bool",
          "name": "reviewed",
          "type": "bool"
        }
      ],
      "payable": false,
      "stateMutability": "view",
      "type": "function"
    },
    {
      "constant": true,
      "inputs": [],
      "name": "reviewersCount",
      "outputs": [
        {
          "internalType": "uint256",
          "name": "",
          "type": "uint256"
        }
      ],
      "payable": false,
      "stateMutability": "view",
      "type": "function"
    },
    {
      "constant": true,
      "inputs": [],
      "name": "getAuthors",
      "outputs": [
        {
          "internalType": "address[]",
          "name": "",
          "type": "address[]"
        }
      ],
      "payable": false,
      "stateMutability": "view",
      "type": "function"
    },
    {
      "constant": true,
      "inputs": [
        {
          "internalType": "address",
          "name": "_address",
          "type": "address"
        }
      ],
      "name": "getAuthor",
      "outputs": [
        {
          "internalType": "uint256",
          "name": "",
          "type": "uint256"
        },
        {
          "internalType": "string",
          "name": "",
          "type": "string"
        }
      ],
      "payable": false,
      "stateMutability": "view",
      "type": "function"
    },
    {
      "constant": true,
      "inputs": [],
      "name": "getEditors",
      "outputs": [
        {
          "internalType": "address[]",
          "name": "",
          "type": "address[]"
        }
      ],
      "payable": false,
      "stateMutability": "view",
      "type": "function"
    },
    {
      "constant": true,
      "inputs": [
        {
          "internalType": "address",
          "name": "_address",
          "type": "address"
        }
      ],
      "name": "getEditor",
      "outputs": [
        {
          "internalType": "uint256",
          "name": "",
          "type": "uint256"
        },
        {
          "internalType": "string",
          "name": "",
          "type": "string"
        }
      ],
      "payable": false,
      "stateMutability": "view",
      "type": "function"
    },
    {
      "constant": true,
      "inputs": [],
      "name": "getReviewers",
      "outputs": [
        {
          "internalType": "address[]",
          "name": "",
          "type": "address[]"
        }
      ],
      "payable": false,
      "stateMutability": "view",
      "type": "function"
    },
    {
      "constant": true,
      "inputs": [
        {
          "internalType": "address",
          "name": "_address",
          "type": "address"
        }
      ],
      "name": "getReviewer",
      "outputs": [
        {
          "internalType": "uint256",
          "name": "",
          "type": "uint256"
        },
        {
          "internalType": "string",
          "name": "",
          "type": "string"
        }
      ],
      "payable": false,
      "stateMutability": "view",
      "type": "function"
    },
    {
      "constant": false,
      "inputs": [
        {
          "internalType": "uint256",
          "name": "_paperid",
          "type": "uint256"
        },
        {
          "internalType": "address[]",
          "name": "_addr",
          "type": "address[]"
        }
      ],
      "name": "addreferenced",
      "outputs": [],
      "payable": false,
      "stateMutability": "nonpayable",
      "type": "function"
    },
    {
      "constant": false,
      "inputs": [
        {
          "internalType": "address",
          "name": "recipient",
          "type": "address"
        },
        {
          "internalType": "uint256",
          "name": "amount",
          "type": "uint256"
        }
      ],
      "name": "transfer",
      "outputs": [
        {
          "internalType": "bool",
          "name": "",
          "type": "bool"
        }
      ],
      "payable": false,
      "stateMutability": "nonpayable",
      "type": "function"
    },
    {
      "constant": false,
      "inputs": [
        {
          "internalType": "address",
          "name": "spender",
          "type": "address"
        },
        {
          "internalType": "uint256",
          "name": "amount",
          "type": "uint256"
        }
      ],
      "name": "approve",
      "outputs": [
        {
          "internalType": "bool",
          "name": "",
          "type": "bool"
        }
      ],
      "payable": false,
      "stateMutability": "nonpayable",
      "type": "function"
    },
    {
      "constant": false,
      "inputs": [
        {
          "internalType": "address",
          "name": "sender",
          "type": "address"
        },
        {
          "internalType": "address",
          "name": "recipient",
          "type": "address"
        },
        {
          "internalType": "uint256",
          "name": "amount",
          "type": "uint256"
        }
      ],
      "name": "transferFrom",
      "outputs": [
        {
          "internalType": "bool",
          "name": "",
          "type": "bool"
        }
      ],
      "payable": false,
      "stateMutability": "nonpayable",
      "type": "function"
    },
    {
      "constant": false,
      "inputs": [
        {
          "internalType": "uint256",
          "name": "_reviewerid",
          "type": "uint256"
        },
        {
          "internalType": "address",
          "name": "_revieweraddr",
          "type": "address"
        },
        {
          "internalType": "address",
          "name": "_authaddr",
          "type": "address"
        },
        {
          "internalType": "uint256",
          "name": "_a",
          "type": "uint256"
        },
        {
          "internalType": "uint256",
          "name": "_paperid",
          "type": "uint256"
        },
        {
          "internalType": "uint256",
          "name": "_amt",
          "type": "uint256"
        }
      ],
      "name": "submitReview",
      "outputs": [],
      "payable": false,
      "stateMutability": "nonpayable",
      "type": "function"
    },
    {
      "constant": false,
      "inputs": [
        {
          "internalType": "address",
          "name": "_authaddr",
          "type": "address"
        },
        {
          "internalType": "address",
          "name": "_editaddr",
          "type": "address"
        },
        {
          "internalType": "uint256",
          "name": "_amt",
          "type": "uint256"
        },
        {
          "internalType": "uint256",
          "name": "_paperid",
          "type": "uint256"
        }
      ],
      "name": "PaymentTransfers",
      "outputs": [],
      "payable": false,
      "stateMutability": "nonpayable",
      "type": "function"
    },
    {
      "constant": false,
      "inputs": [
        {
          "internalType": "uint256",
          "name": "_authid",
          "type": "uint256"
        },
        {
          "internalType": "uint256",
          "name": "_paperid",
          "type": "uint256"
        }
      ],
      "name": "acceptPaper",
      "outputs": [],
      "payable": false,
      "stateMutability": "nonpayable",
      "type": "function"
    },
    {
      "constant": false,
      "inputs": [
        {
          "internalType": "address",
          "name": "spender",
          "type": "address"
        },
        {
          "internalType": "uint256",
          "name": "subtractedValue",
          "type": "uint256"
        }
      ],
      "name": "decreaseAllowance",
      "outputs": [
        {
          "internalType": "bool",
          "name": "",
          "type": "bool"
        }
      ],
      "payable": false,
      "stateMutability": "nonpayable",
      "type": "function"
    },
    {
      "constant": false,
      "inputs": [
        {
          "internalType": "address",
          "name": "spender",
          "type": "address"
        },
        {
          "internalType": "uint256",
          "name": "addedValue",
          "type": "uint256"
        }
      ],
      "name": "increaseAllowance",
      "outputs": [
        {
          "internalType": "bool",
          "name": "",
          "type": "bool"
        }
      ],
      "payable": false,
      "stateMutability": "nonpayable",
      "type": "function"
    },
    {
      "constant": true,
      "inputs": [],
      "name": "decimals",
      "outputs": [
        {
          "internalType": "uint8",
          "name": "",
          "type": "uint8"
        }
      ],
      "payable": false,
      "stateMutability": "view",
      "type": "function"
    },
    {
      "constant": true,
      "inputs": [],
      "name": "totalSupply",
      "outputs": [
        {
          "internalType": "uint256",
          "name": "",
          "type": "uint256"
        }
      ],
      "payable": false,
      "stateMutability": "view",
      "type": "function"
    },
    {
      "constant": true,
      "inputs": [
        {
          "internalType": "address",
          "name": "account",
          "type": "address"
        }
      ],
      "name": "balanceOf",
      "outputs": [
        {
          "internalType": "uint256",
          "name": "",
          "type": "uint256"
        }
      ],
      "payable": false,
      "stateMutability": "view",
      "type": "function"
    },
    {
      "constant": true,
      "inputs": [
        {
          "internalType": "address",
          "name": "owner",
          "type": "address"
        },
        {
          "internalType": "address",
          "name": "spender",
          "type": "address"
        }
      ],
      "name": "allowance",
      "outputs": [
        {
          "internalType": "uint256",
          "name": "",
          "type": "uint256"
        }
      ],
      "payable": false,
      "stateMutability": "view",
      "type": "function"
    }
  ],
  "bytecode": "0x60806040526003600f5560026010556001601155600160125560016013556012601560006101000a81548160ff021916908360ff1602179055506040518060400160405280600a81526020017f454b4120546f6b656e73000000000000000000000000000000000000000000008152506016908051906020019062000086929190620000e9565b506040518060400160405280600581526020017f455243323000000000000000000000000000000000000000000000000000000081525060179080519060200190620000d4929190620000e9565b50348015620000e257600080fd5b5062000198565b828054600181600116156101000203166002900490600052602060002090601f016020900481019282601f106200012c57805160ff19168380011785556200015d565b828001600101855582156200015d579182015b828111156200015c5782518255916020019190600101906200013f565b5b5090506200016c919062000170565b5090565b6200019591905b808211156200019157600081600090555060010162000177565b5090565b90565b6128b280620001a86000396000f3fe608060405234801561001057600080fd5b50600436106102275760003560e01c8063751b70d811610130578063a9059cbb116100b8578063c8a82c351161007c578063c8a82c3514610e20578063cd52844d14610e3e578063cf2ebd9814610f02578063dd62ed3e14610f7a578063f7cbb1b214610ff257610227565b8063a9059cbb14610c82578063af640d0f14610ce8578063af84131d14610d06578063b785352c14610d3e578063bf9c500114610d5c57610227565b8063916cec76116100ff578063916cec7614610b135780639a23eeae14610b315780639dc4b8f214610b90578063a258e26e14610bae578063a457c2d714610c1c57610227565b8063751b70d81461097357806375a87643146109915780637fc622f4146109f05780638979d90114610a4f57610227565b806339509351116101b35780634e61c2a5116101825780634e61c2a5146106ea5780635e775a27146107ae57806360bf90591461087157806370a082311461088f578063724f18cb146108e757610227565b806339509351146105da5780633cead0ea1461064057806345d732d1146106ae5780634b8bee67146106cc57610227565b80631fa2e530116101fa5780631fa2e5301461043657806323b872dd146104a457806325ca819f1461052a578063313ce56714610548578063324903ae1461056c57610227565b8063095ea7b31461022c5780630ab30093146102925780630af5339f1461035657806318160ddd14610418575b600080fd5b6102786004803603604081101561024257600080fd5b81019080803573ffffffffffffffffffffffffffffffffffffffff169060200190929190803590602001909291905050506110c1565b604051808215151515815260200191505060405180910390f35b6102d4600480360360208110156102a857600080fd5b81019080803573ffffffffffffffffffffffffffffffffffffffff1690602001909291905050506110df565b6040518083815260200180602001828103825283818151815260200191508051906020019080838360005b8381101561031a5780820151818401526020810190506102ff565b50505050905090810190601f1680156103475780820380516001836020036101000a031916815260200191505b50935050505060405180910390f35b6104166004803603604081101561036c57600080fd5b81019080803590602001909291908035906020019064010000000081111561039357600080fd5b8201836020820111156103a557600080fd5b803590602001918460208302840111640100000000831117156103c757600080fd5b919080806020026020016040519081016040528093929190818152602001838360200280828437600081840152601f19601f82011690508083019250505050505050919291929050505061120d565b005b6104206112bf565b6040518082815260200191505060405180910390f35b6104626004803603602081101561044c57600080fd5b81019080803590602001909291905050506112c9565b604051808273ffffffffffffffffffffffffffffffffffffffff1673ffffffffffffffffffffffffffffffffffffffff16815260200191505060405180910390f35b610510600480360360608110156104ba57600080fd5b81019080803573ffffffffffffffffffffffffffffffffffffffff169060200190929190803573ffffffffffffffffffffffffffffffffffffffff16906020019092919080359060200190929190505050611305565b604051808215151515815260200191505060405180910390f35b6105326113de565b6040518082815260200191505060405180910390f35b6105506113e4565b604051808260ff1660ff16815260200191505060405180910390f35b6105986004803603602081101561058257600080fd5b81019080803590602001909291905050506113fb565b604051808273ffffffffffffffffffffffffffffffffffffffff1673ffffffffffffffffffffffffffffffffffffffff16815260200191505060405180910390f35b610626600480360360408110156105f057600080fd5b81019080803573ffffffffffffffffffffffffffffffffffffffff16906020019092919080359060200190929190505050611437565b604051808215151515815260200191505060405180910390f35b61066c6004803603602081101561065657600080fd5b81019080803590602001909291905050506114ea565b604051808273ffffffffffffffffffffffffffffffffffffffff1673ffffffffffffffffffffffffffffffffffffffff16815260200191505060405180910390f35b6106b6611526565b6040518082815260200191505060405180910390f35b6106d461152c565b6040518082815260200191505060405180910390f35b61072c6004803603602081101561070057600080fd5b81019080803573ffffffffffffffffffffffffffffffffffffffff169060200190929190505050611532565b6040518083815260200180602001828103825283818151815260200191508051906020019080838360005b83811015610772578082015181840152602081019050610757565b50505050905090810190601f16801561079f5780820380516001836020036101000a031916815260200191505b50935050505060405180910390f35b6107da600480360360208110156107c457600080fd5b8101908080359060200190929190505050611660565b6040518086815260200185815260200180602001848152602001838152602001828103825285818151815260200191508051906020019080838360005b83811015610832578082015181840152602081019050610817565b50505050905090810190601f16801561085f5780820380516001836020036101000a031916815260200191505b50965050505050505060405180910390f35b61087961172e565b6040518082815260200191505060405180910390f35b6108d1600480360360208110156108a557600080fd5b81019080803573ffffffffffffffffffffffffffffffffffffffff169060200190929190505050611734565b6040518082815260200191505060405180910390f35b610971600480360360c08110156108fd57600080fd5b8101908080359060200190929190803573ffffffffffffffffffffffffffffffffffffffff169060200190929190803573ffffffffffffffffffffffffffffffffffffffff16906020019092919080359060200190929190803590602001909291908035906020019092919050505061177c565b005b61097b611932565b6040518082815260200191505060405180910390f35b610999611938565b6040518080602001828103825283818151815260200191508051906020019060200280838360005b838110156109dc5780820151818401526020810190506109c1565b505050509050019250505060405180910390f35b6109f86119c6565b6040518080602001828103825283818151815260200191508051906020019060200280838360005b83811015610a3b578082015181840152602081019050610a20565b505050509050019250505060405180910390f35b610a9160048036036020811015610a6557600080fd5b81019080803573ffffffffffffffffffffffffffffffffffffffff169060200190929190505050611a54565b6040518083815260200180602001828103825283818151815260200191508051906020019080838360005b83811015610ad7578082015181840152602081019050610abc565b50505050905090810190601f168015610b045780820380516001836020036101000a031916815260200191505b50935050505060405180910390f35b610b1b611b82565b6040518082815260200191505060405180910390f35b610b39611b88565b6040518080602001828103825283818151815260200191508051906020019060200280838360005b83811015610b7c578082015181840152602081019050610b61565b505050509050019250505060405180910390f35b610b98611c16565b6040518082815260200191505060405180910390f35b610bda60048036036020811015610bc457600080fd5b8101908080359060200190929190505050611c1c565b604051808273ffffffffffffffffffffffffffffffffffffffff1673ffffffffffffffffffffffffffffffffffffffff16815260200191505060405180910390f35b610c6860048036036040811015610c3257600080fd5b81019080803573ffffffffffffffffffffffffffffffffffffffff16906020019092919080359060200190929190505050611c58565b604051808215151515815260200191505060405180910390f35b610cce60048036036040811015610c9857600080fd5b81019080803573ffffffffffffffffffffffffffffffffffffffff16906020019092919080359060200190929190505050611d25565b604051808215151515815260200191505060405180910390f35b610cf0611d43565b6040518082815260200191505060405180910390f35b610d3c60048036036040811015610d1c57600080fd5b810190808035906020019092919080359060200190929190505050611d49565b005b610d46611d8a565b6040518082815260200191505060405180910390f35b610d9e60048036036020811015610d7257600080fd5b81019080803573ffffffffffffffffffffffffffffffffffffffff169060200190929190505050611d90565b6040518083815260200180602001828103825283818151815260200191508051906020019080838360005b83811015610de4578082015181840152602081019050610dc9565b50505050905090810190601f168015610e115780820380516001836020036101000a031916815260200191505b50935050505060405180910390f35b610e28611e4c565b6040518082815260200191505060405180910390f35b610e8060048036036020811015610e5457600080fd5b81019080803573ffffffffffffffffffffffffffffffffffffffff169060200190929190505050611e52565b6040518083815260200180602001828103825283818151815260200191508051906020019080838360005b83811015610ec6578082015181840152602081019050610eab565b50505050905090810190601f168015610ef35780820380516001836020036101000a031916815260200191505b50935050505060405180910390f35b610f7860048036036080811015610f1857600080fd5b81019080803573ffffffffffffffffffffffffffffffffffffffff169060200190929190803573ffffffffffffffffffffffffffffffffffffffff1690602001909291908035906020019092919080359060200190929190505050611f0e565b005b610fdc60048036036040811015610f9057600080fd5b81019080803573ffffffffffffffffffffffffffffffffffffffff169060200190929190803573ffffffffffffffffffffffffffffffffffffffff169060200190929190505050612019565b6040518082815260200191505060405180910390f35b6110346004803603602081101561100857600080fd5b81019080803573ffffffffffffffffffffffffffffffffffffffff1690602001909291905050506120a0565b604051808481526020018060200183151515158152602001828103825284818151815260200191508051906020019080838360005b83811015611084578082015181840152602081019050611069565b50505050905090810190601f1680156110b15780820380516001836020036101000a031916815260200191505b5094505050505060405180910390f35b60006110d56110ce61216f565b8484612177565b6001905092915050565b60006060600260008473ffffffffffffffffffffffffffffffffffffffff1673ffffffffffffffffffffffffffffffffffffffff16815260200190815260200160002060000154600260008573ffffffffffffffffffffffffffffffffffffffff1673ffffffffffffffffffffffffffffffffffffffff168152602001908152602001600020600101808054600181600116156101000203166002900480601f0160208091040260200160405190810160405280929190818152602001828054600181600116156101000203166002900480156111fd5780601f106111d2576101008083540402835291602001916111fd565b820191906000526020600020905b8154815290600101906020018083116111e057829003601f168201915b5050505050905091509150915091565b60008090505b60086000848152602001908152602001600020600401548110156112ba576001600e83838151811061124157fe5b602002602001015190806001815401808255809150509060018203906000526020600020016000909192909190916101000a81548173ffffffffffffffffffffffffffffffffffffffff021916908373ffffffffffffffffffffffffffffffffffffffff16021790555050508080600101915050611213565b505050565b6000601454905090565b600e81815481106112d657fe5b906000526020600020016000915054906101000a900473ffffffffffffffffffffffffffffffffffffffff1681565b600061131284848461236e565b6113d38461131e61216f565b6113ce856040518060600160405280602881526020016127e860289139600160008b73ffffffffffffffffffffffffffffffffffffffff1673ffffffffffffffffffffffffffffffffffffffff168152602001908152602001600020600061138461216f565b73ffffffffffffffffffffffffffffffffffffffff1673ffffffffffffffffffffffffffffffffffffffff1681526020019081526020016000205461262f9092919063ffffffff16565b612177565b600190509392505050565b60095481565b6000601560009054906101000a900460ff16905090565b6007818154811061140857fe5b906000526020600020016000915054906101000a900473ffffffffffffffffffffffffffffffffffffffff1681565b60006114e061144461216f565b846114db856001600061145561216f565b73ffffffffffffffffffffffffffffffffffffffff1673ffffffffffffffffffffffffffffffffffffffff16815260200190815260200160002060008973ffffffffffffffffffffffffffffffffffffffff1673ffffffffffffffffffffffffffffffffffffffff168152602001908152602001600020546126ef90919063ffffffff16565b612177565b6001905092915050565b600581815481106114f757fe5b906000526020600020016000915054906101000a900473ffffffffffffffffffffffffffffffffffffffff1681565b60115481565b60125481565b60006060600460008473ffffffffffffffffffffffffffffffffffffffff1673ffffffffffffffffffffffffffffffffffffffff16815260200190815260200160002060000154600460008573ffffffffffffffffffffffffffffffffffffffff1673ffffffffffffffffffffffffffffffffffffffff168152602001908152602001600020600101808054600181600116156101000203166002900480601f0160208091040260200160405190810160405280929190818152602001828054600181600116156101000203166002900480156116505780601f1061162557610100808354040283529160200191611650565b820191906000526020600020905b81548152906001019060200180831161163357829003601f168201915b5050505050905091509150915091565b6008602052806000526040600020600091509050806000015490806001015490806002018054600181600116156101000203166002900480601f0160208091040260200160405190810160405280929190818152602001828054600181600116156101000203166002900480156117185780601f106116ed57610100808354040283529160200191611718565b820191906000526020600020905b8154815290600101906020018083116116fb57829003601f168201915b5050505050908060030154908060040154905085565b600b5481565b60008060008373ffffffffffffffffffffffffffffffffffffffff1673ffffffffffffffffffffffffffffffffffffffff168152602001908152602001600020549050919050565b8473ffffffffffffffffffffffffffffffffffffffff16600787815481106117a057fe5b9060005260206000200160009054906101000a900473ffffffffffffffffffffffffffffffffffffffff1673ffffffffffffffffffffffffffffffffffffffff16146117eb57600080fd5b82600260008673ffffffffffffffffffffffffffffffffffffffff1673ffffffffffffffffffffffffffffffffffffffff168152602001908152602001600020600001541461183957600080fd5b600260008573ffffffffffffffffffffffffffffffffffffffff1673ffffffffffffffffffffffffffffffffffffffff1681526020019081526020016000206000015460086000848152602001908152602001600020600101541461189d57600080fd5b6001600660008773ffffffffffffffffffffffffffffffffffffffff1673ffffffffffffffffffffffffffffffffffffffff16815260200190815260200160002060020160006101000a81548160ff0219169083151502179055506008600083815260200190815260200160002060030160008154809291906001019190505550611929848683611305565b50505050505050565b60105481565b606060078054806020026020016040519081016040528092919081815260200182805480156119bc57602002820191906000526020600020905b8160009054906101000a900473ffffffffffffffffffffffffffffffffffffffff1673ffffffffffffffffffffffffffffffffffffffff1681526020019060010190808311611972575b5050505050905090565b60606003805480602002602001604051908101604052809291908181526020018280548015611a4a57602002820191906000526020600020905b8160009054906101000a900473ffffffffffffffffffffffffffffffffffffffff1673ffffffffffffffffffffffffffffffffffffffff1681526020019060010190808311611a00575b5050505050905090565b60006060600660008473ffffffffffffffffffffffffffffffffffffffff1673ffffffffffffffffffffffffffffffffffffffff16815260200190815260200160002060000154600660008573ffffffffffffffffffffffffffffffffffffffff1673ffffffffffffffffffffffffffffffffffffffff168152602001908152602001600020600101808054600181600116156101000203166002900480601f016020809104026020016040519081016040528092919081815260200182805460018160011615610100020316600290048015611b725780601f10611b4757610100808354040283529160200191611b72565b820191906000526020600020905b815481529060010190602001808311611b5557829003601f168201915b5050505050905091509150915091565b600c5481565b60606005805480602002602001604051908101604052809291908181526020018280548015611c0c57602002820191906000526020600020905b8160009054906101000a900473ffffffffffffffffffffffffffffffffffffffff1673ffffffffffffffffffffffffffffffffffffffff1681526020019060010190808311611bc2575b5050505050905090565b60135481565b60038181548110611c2957fe5b906000526020600020016000915054906101000a900473ffffffffffffffffffffffffffffffffffffffff1681565b6000611d1b611c6561216f565b84611d16856040518060600160405280602581526020016128596025913960016000611c8f61216f565b73ffffffffffffffffffffffffffffffffffffffff1673ffffffffffffffffffffffffffffffffffffffff16815260200190815260200160002060008a73ffffffffffffffffffffffffffffffffffffffff1673ffffffffffffffffffffffffffffffffffffffff1681526020019081526020016000205461262f9092919063ffffffff16565b612177565b6001905092915050565b6000611d39611d3261216f565b848461236e565b6001905092915050565b600d5481565b600081118015611d5b5750600c548111155b611d6457600080fd5b81600860008381526020019081526020016000206001015414611d8657600080fd5b5050565b600a5481565b6002602052806000526040600020600091509050806000015490806001018054600181600116156101000203166002900480601f016020809104026020016040519081016040528092919081815260200182805460018160011615610100020316600290048015611e425780601f10611e1757610100808354040283529160200191611e42565b820191906000526020600020905b815481529060010190602001808311611e2557829003601f168201915b5050505050905082565b600f5481565b6004602052806000526040600020600091509050806000015490806001018054600181600116156101000203166002900480601f016020809104026020016040519081016040528092919081815260200182805460018160011615610100020316600290048015611f045780601f10611ed957610100808354040283529160200191611f04565b820191906000526020600020905b815481529060010190602001808311611ee757829003601f168201915b5050505050905082565b6008600082815260200190815260200160002060040154600f54018210611f5757600860008281526020019081526020016000206004015482039150611f55848484611305565b505b60086000828152602001908152602001600020600401548281611f7657fe5b04915060006008600083815260200190815260200160002060040154905060008090505b600860008481526020019081526020016000206004015481101561201157611ffa86600e8381548110611fc957fe5b9060005260206000200160009054906101000a900473ffffffffffffffffffffffffffffffffffffffff1684611305565b508180600190039250508080600101915050611f9a565b505050505050565b6000600160008473ffffffffffffffffffffffffffffffffffffffff1673ffffffffffffffffffffffffffffffffffffffff16815260200190815260200160002060008373ffffffffffffffffffffffffffffffffffffffff1673ffffffffffffffffffffffffffffffffffffffff16815260200190815260200160002054905092915050565b6006602052806000526040600020600091509050806000015490806001018054600181600116156101000203166002900480601f0160208091040260200160405190810160405280929190818152602001828054600181600116156101000203166002900480156121525780601f1061212757610100808354040283529160200191612152565b820191906000526020600020905b81548152906001019060200180831161213557829003601f168201915b5050505050908060020160009054906101000a900460ff16905083565b600033905090565b600073ffffffffffffffffffffffffffffffffffffffff168373ffffffffffffffffffffffffffffffffffffffff1614156121fd576040517f08c379a00000000000000000000000000000000000000000000000000000000081526004018080602001828103825260248152602001806128356024913960400191505060405180910390fd5b600073ffffffffffffffffffffffffffffffffffffffff168273ffffffffffffffffffffffffffffffffffffffff161415612283576040517f08c379a00000000000000000000000000000000000000000000000000000000081526004018080602001828103825260228152602001806127a06022913960400191505060405180910390fd5b80600160008573ffffffffffffffffffffffffffffffffffffffff1673ffffffffffffffffffffffffffffffffffffffff16815260200190815260200160002060008473ffffffffffffffffffffffffffffffffffffffff1673ffffffffffffffffffffffffffffffffffffffff168152602001908152602001600020819055508173ffffffffffffffffffffffffffffffffffffffff168373ffffffffffffffffffffffffffffffffffffffff167f8c5be1e5ebec7d5bd14f71427d1e84f3dd0314c0f7b2291e5b200ac8c7c3b925836040518082815260200191505060405180910390a3505050565b600073ffffffffffffffffffffffffffffffffffffffff168373ffffffffffffffffffffffffffffffffffffffff1614156123f4576040517f08c379a00000000000000000000000000000000000000000000000000000000081526004018080602001828103825260258152602001806128106025913960400191505060405180910390fd5b600073ffffffffffffffffffffffffffffffffffffffff168273ffffffffffffffffffffffffffffffffffffffff16141561247a576040517f08c379a000000000000000000000000000000000000000000000000000000000815260040180806020018281038252602381526020018061277d6023913960400191505060405180910390fd5b612485838383612777565b6124f0816040518060600160405280602681526020016127c2602691396000808773ffffffffffffffffffffffffffffffffffffffff1673ffffffffffffffffffffffffffffffffffffffff1681526020019081526020016000205461262f9092919063ffffffff16565b6000808573ffffffffffffffffffffffffffffffffffffffff1673ffffffffffffffffffffffffffffffffffffffff16815260200190815260200160002081905550612583816000808573ffffffffffffffffffffffffffffffffffffffff1673ffffffffffffffffffffffffffffffffffffffff168152602001908152602001600020546126ef90919063ffffffff16565b6000808473ffffffffffffffffffffffffffffffffffffffff1673ffffffffffffffffffffffffffffffffffffffff168152602001908152602001600020819055508173ffffffffffffffffffffffffffffffffffffffff168373ffffffffffffffffffffffffffffffffffffffff167fddf252ad1be2c89b69c2b068fc378daa952ba7f163c4a11628f55a4df523b3ef836040518082815260200191505060405180910390a3505050565b60008383111582906126dc576040517f08c379a00000000000000000000000000000000000000000000000000000000081526004018080602001828103825283818151815260200191508051906020019080838360005b838110156126a1578082015181840152602081019050612686565b50505050905090810190601f1680156126ce5780820380516001836020036101000a031916815260200191505b509250505060405180910390fd5b5060008385039050809150509392505050565b60008082840190508381101561276d576040517f08c379a000000000000000000000000000000000000000000000000000000000815260040180806020018281038252601b8152602001807f536166654d6174683a206164646974696f6e206f766572666c6f77000000000081525060200191505060405180910390fd5b8091505092915050565b50505056fe45524332303a207472616e7366657220746f20746865207a65726f206164647265737345524332303a20617070726f766520746f20746865207a65726f206164647265737345524332303a207472616e7366657220616d6f756e7420657863656564732062616c616e636545524332303a207472616e7366657220616d6f756e74206578636565647320616c6c6f77616e636545524332303a207472616e736665722066726f6d20746865207a65726f206164647265737345524332303a20617070726f76652066726f6d20746865207a65726f206164647265737345524332303a2064656372656173656420616c6c6f77616e63652062656c6f77207a65726fa265627a7a7231582071692be7af1057f0c047e4ee7bd94e2d73214a59fa57948a7a7a4bad2e98eb8364736f6c63430005100032",
  "source": "pragma solidity ^0.5.16;\n\nimport \"./SafeMath.sol\";\nimport \"./Address.sol\";\nimport \"./IERC20.sol\";\nimport \"./Context.sol\";\n\n\n//nobody can be a zero address\n\ncontract Eureka is Context, IERC20{\n    using SafeMath for uint256;\n    using Address for address;\n\n    constructor() public {\n\n        // _name = \"Eureka Tokens\";\n        // _symbol = \"EKA20\";\n        // _decimals = 18;\n    }\n\n\tstruct Author{\n\t\tuint256 authid; //unsigned integer\n\t\tstring authname;\n\t}\n\tstruct Editor{\n\t\tuint256 editid;\n\t\tstring editname;\n\t}\n\tstruct Paper{\n        uint256 paperid;\n\t\tuint256 authid;\n\t\tstring url;\n\t\tuint256 reviewCount;\n        uint256 noreferencedauthors;\n\t}\n    struct Reviewer{\n        uint256 reviewerid;\n        string reviewername;\n        bool reviewed;\n    }\n\n\n\n    mapping (address => uint256) private _balances;\n    mapping (address => mapping (address => uint256)) private _allowances;\n\tmapping (address => Author) public authors;\n    address[] public authorAccts;\n\tmapping (address => Editor) public editors;\n    address[] public editorAccts;\n\tmapping (address => Reviewer) public reviewers; //lookup to see whos reviewed\n    address[] public reviewerAccts;\n\tmapping (uint => Paper) public papers;\n\n\tuint256 public authorsCount;\n\tuint256 public editorsCount;\n    uint256 public reviewersCount;\n\tuint256 public papersCount;\n    uint256 public id;\n    address[] public referencedAuthors;\n    uint256 public minPaperAmount=3;\n    uint256 public EditorAmt=2;\n    uint256 public ReviewerAmt=1;\n    uint256 public ReferencedAmt=1;\n    uint256 public minreview = 1;\n    uint256 private _totalSupply;\n    uint8 private _decimals=18;\n    string private _name=\"EKA Tokens\";\n    string private _symbol=\"ERC20\";\n\n\n\tfunction addAuthor(address _address, string memory _nme) private { \n        authors[_address].authid = authorsCount++;\n        authors[_address].authname = _nme;\n        authorAccts.push(_address)-1;\n    }\n\n    function getAuthors() view public returns(address[] memory){\n        return authorAccts;\n    }\n    function getAuthor(address _address) view public returns (uint256, string memory) {\n        return (authors[_address].authid, authors[_address].authname);\n    }\n\n    function addEditor (address _address, string memory _nme) private {\n        editors[_address].editid = editorsCount++;\n        editors[_address].editname = _nme;\n        editorAccts.push(_address)-1;\n    }\n    function getEditors () view public returns(address[] memory){\n        return editorAccts;\n    }\n    function getEditor (address _address) view public returns(uint256, string memory) {\n        return (editors[_address].editid, editors[_address].editname);\n    }\n    \n    function addReviewer (address _address, string memory _nme)private {\n        reviewers[_address].reviewerid=reviewersCount++;\n        reviewers[_address].reviewername = _nme;\n        reviewers[_address].reviewed = false;   \n        reviewerAccts.push(_address)-1;\n    }\n    function getReviewers () view public returns(address[] memory){\n        return reviewerAccts;\n    }\n    function getReviewer (address _address) view public returns(uint256, string memory) {\n        return (reviewers[_address].reviewerid, reviewers[_address].reviewername);\n    }\n    \n\n    function addPaper (uint256 _authid, address _authaddr, string memory _url, uint256 _noreferencedauth) private {\n        //require that the author is valid\n        require (authorAccts[_authid]==_authaddr);\n    \tpapersCount++;\n    \tpapers[papersCount] = Paper(papersCount, _authid, _url, 0, _noreferencedauth);\n    }\n    function addreferenced (uint256 _paperid, address[] memory _addr) public{\n        for(uint256 i=0;i<papers[_paperid].noreferencedauthors;i++){\n            referencedAuthors.push(_addr[i])-1;\n        }\n    }\n    function _setupDecimals(uint8 decimals_) internal {\n        _decimals = decimals_;\n    }\n    function _beforeTokenTransfer(address from, address to, uint256 amount) internal { }\n\n    function _transfer(address sender, address recipient, uint256 amount) internal {\n        require(sender != address(0), \"ERC20: transfer from the zero address\");\n        require(recipient != address(0), \"ERC20: transfer to the zero address\");\n\n        _beforeTokenTransfer(sender, recipient, amount);\n\n        _balances[sender] = _balances[sender].sub(amount, \"ERC20: transfer amount exceeds balance\");\n        _balances[recipient] = _balances[recipient].add(amount);\n        emit Transfer(sender, recipient, amount);\n    }\n    function _approve(address owner, address spender, uint256 amount) internal {\n        require(owner != address(0), \"ERC20: approve from the zero address\");\n        require(spender != address(0), \"ERC20: approve to the zero address\");\n\n        _allowances[owner][spender] = amount;\n        emit Approval(owner, spender, amount);\n    }\n    \n    function transfer(address recipient, uint256 amount) public returns (bool) {\n        _transfer(_msgSender(), recipient, amount);\n        return true;\n    }\n\n    function approve(address spender, uint256 amount) public returns (bool) {\n        _approve(_msgSender(), spender, amount);\n        return true;\n    }\n\n    function transferFrom(address sender, address recipient, uint256 amount) public returns (bool) {\n        _transfer(sender, recipient, amount);\n        _approve(sender, _msgSender(), _allowances[sender][_msgSender()].sub(amount, \"ERC20: transfer amount exceeds allowance\"));\n        return true;\n    }\n\n    function submitReview (uint256 _reviewerid, address _revieweraddr, address  _authaddr, uint256 _a, uint256 _paperid, uint256 _amt) public {\n       // require that they haven't reviewed before\n         require(reviewerAccts[_reviewerid]==_revieweraddr);\n        // require a valid author\n        require(authors[_authaddr].authid==_a);\n        //require that the paper belongs to the author\n        require(papers[_paperid].authid == authors[_authaddr].authid);\n        // record that reviwer has reviewed\n        reviewers[_revieweraddr].reviewed = true;\n        // update paper review Count\n        papers[_paperid].reviewCount++;\n        transferFrom(_authaddr,_revieweraddr,_amt);\n    }\n\n    //below function describes what to do in either cases, acception or rejection of the paper. transfer of eka tokens.\n    function PaymentTransfers (address _authaddr, address _editaddr, uint256 _amt, uint256 _paperid) public {\n        //deduct from author and send to editor\n        if (_amt>=(minPaperAmount+papers[_paperid].noreferencedauthors)){\n            _amt= (_amt-papers[_paperid].noreferencedauthors);\n            transferFrom(_authaddr,_editaddr,_amt); \n        }\n        _amt = _amt/papers[_paperid].noreferencedauthors;\n        uint256 _b = papers[_paperid].noreferencedauthors;\n        //send to referenced authors\n        for(uint256 i=0;i<papers[_paperid].noreferencedauthors;i++){\n            transferFrom(_authaddr,referencedAuthors[i],_b);\n            _b--;\n        } \n    }\n    \n\n    function acceptPaper (uint256 _authid, uint256 _paperid) public {\n        //require that paperid is valid \n        require (_paperid >0 && _paperid<=papersCount);\n        //require that paperid belongs to the correct author id\n        require (papers[_paperid].authid == _authid);\n    }\n\n    function _burn(address account, uint256 amount) internal {\n        require(account != address(0), \"ERC20: burn from the zero address\");\n\n        _beforeTokenTransfer(account, address(0), amount);\n\n        _balances[account] = _balances[account].sub(amount, \"ERC20: burn amount exceeds balance\");\n        _totalSupply = _totalSupply.sub(amount);\n        emit Transfer(account, address(0), amount);\n    }\n    function _mint(address account, uint256 amount) internal{\n        require(account != address(0), \"ERC20: mint to the zero address\");\n\n        _beforeTokenTransfer(address(0), account, amount);\n\n        _totalSupply = _totalSupply.add(amount);\n        _balances[account] = _balances[account].add(amount);\n        emit Transfer(address(0), account, amount);\n    }\n    function decreaseAllowance(address spender, uint256 subtractedValue) public returns (bool) {\n        _approve(_msgSender(), spender, _allowances[_msgSender()][spender].sub(subtractedValue, \"ERC20: decreased allowance below zero\"));\n        return true;\n    }\n    function increaseAllowance(address spender, uint256 addedValue) public returns (bool) {\n        _approve(_msgSender(), spender, _allowances[_msgSender()][spender].add(addedValue));\n        return true;\n    }\n    function decimals() public view returns (uint8) {\n        return _decimals;\n    }\n\n    /**\n     * @dev See {IERC20-totalSupply}.\n     */\n    function totalSupply() public view returns (uint256) {\n        return _totalSupply;\n    }\n\n    /**\n     * @dev See {IERC20-balanceOf}.\n     */\n    function balanceOf(address account) public view returns (uint256) {\n        return _balances[account];\n    }\n    function allowance(address owner, address spender) public view returns (uint256) {\n        return _allowances[owner][spender];\n    }\n}\n",
  "sourcePath": "/Users/ahmedabbas/blockchain/contracts/Eureka.sol",
  "compiler": {
    "name": "solc",
    "version": "0.5.16+commit.9c3226ce.Emscripten.clang"
  },
  "schemaVersion": "3.2.1",
  "updatedAt": "2020-07-13T14:33:53.498Z",
  "networkType": "ethereum",
  "devdoc": {
    "methods": {
      "balanceOf(address)": {
        "details": "See {IERC20-balanceOf}."
      },
      "totalSupply()": {
        "details": "See {IERC20-totalSupply}."
      }
    }
  },
  "userdoc": {
    "methods": {}
  }
}